:10FE6C0038B504460D460DF035FF08482168016091
:10FE7C0061684160A16881600CF06FFB0CF05FFB66
:10FE8C002846BDE8324007F08CB800BFD8470020A8
:10FE9C00D37D0100B7AA0100DF910100D3AC0100B2
:10FEAC003165010039AF0100C34301000F1401009B
:10FEBC00FF3B0100550001000A00C0860200000053
:10FECC0094CC01000200000090CC010000613100D4
:10FEDC00D8FE0000010000000000D0020A0500005E
:10FEEC0000000000020100000000000010000000F3
:10FEFC0000000000EC0000210000000000000000E9
:10FF0C0000FF0000E4FE000000000000E8FE00001E
:10FF1C00ECFE0000F0FE0000F4FE0000F8FE000015
:10FF2C00FCFE0000B4460020DFF800F04195001004
:10FF3C00DFF800F071950010DFF800F0D19500109B
:10FF4C00DFF800F03D970010DFF800F06597001027
:10FF5C00DFF800F029980010DFF800F0F598001099
:10FF6C00DFF800F0C9990010DFF800F0F9990010E3
:10FF7C00DFF800F0159A0010DFF800F0319A00104D
:10FF8C00DFF800F0A19A0010DFF800F0F59A0010ED
:10FF9C00DFF800F0159C0010DFF800F08D9C0010CD
:10FFAC00DFF800F0099D0010DFF800F0459D00100F
:10FFBC00DFF800F0D19D0010DFF800F02D9E00104E
:10FFCC00DFF800F04D9E0010DFF800F06D9E001081
:10FFDC00DFF800F08D9E0010DFF800F0AD9E0010F1
:10FFEC00DFF800F0CD9E0010DFF800F0ED9E001061
:04FFFC00DFF800F03A
:020000040001F9
:100000000D9F0010DFF800F0499F0010DFF800F0AE
:10001000699F0010DFF800F0D19F0010DFF800F0BA
:1000200011A00010DFF800F031A00010DFF800F0A0
:1000300075A00010DFF800F0F1A00010DFF800F06C
:1000400009A10010DFF800F0B5A10010DFF8401999
:10005000087070472DE9FE430C46200454D5DFF8A4
:100060003009007800F0A9FD05004AD0DFF82479B6
:1000700039680126002918BF11F1010F07D0DFF8F8
:100080001809007800F03BFD4FF0FF303860287809
:10009000812802D082282CD02FE000208DF8086023
:1000A0008DF80900AE88AF7995F80280B00A3F2834
:1000B00007D1C6F3C21020B100F029F800F02EF8E5
:1000C00003E000F024F800F088F88146284600F0AC
:1000D00007FD9DF80800A0B1DFF8C00801904B466D
:1000E0009DF8090000903A463146404600F0BAF9C2
:1000F00007E0284600F064FB064616B1284600F0EB
:10010000EFFC84F4004000E00020BDE8FE8302AB79
:100110000DF10902294630467047000038B500F05D
:100120007F04C00900F00700401E04280D4652D885
:10013000DFE800F0030C2C474C00122C4BD12A7C3A
:10014000E9682889BDE8384000F0E3BF2889E968FC
:10015000012C17D00B2C11D00D2C0BD0132C05D04B
:10016000192C38D1BDE8324001F0D5B8BDE8324095
:1001700001F0BEB8BDE8344001F08CB8BDE83440B1
:1001800001F07AB8BDE8344001F023B828891B2C6F
:1001900011D01D2C07D0432C1DD1AA89698902F0EA
:1001A000C2F8002032BD6B7C2A7CE96801B0BDE852
:1001B000304002F0C5BA2A7CE968BDE8384002F058
:1001C000F5BA204601B0BDE8304013E2204601B048
:1001D000BDE830408AE1012032BD0B4640F21D41AE
:1001E000401A00F0978040F2E471401A00F09580C8
:1001F000801E00F098802A3800F09780363800F092
:100200008F8040F29E31401A00F09480401E00F032
:100210009380401E00F09280801F00F091804FF488
:100220007F71401A00F08E8040F6FC31401A00F0D9
:100230008C80801E00F08C80001F00F08B800838BE
:1002400000F08A80401E00F08980401E00F0888007
:10025000401E00F08A80C01E00F08C80401E00F01E
:100260008C80401E00F08C80401F00F08D80401E6E
:1002700000F09180401E00F08980401E00F08F80C9
:100280004DF6E231401A00F08C80401E00F08D8067
:10029000C01E00F08E80401E00F08F80401E00F0D7
:1002A0008F80401E00F09480401E00F09780401E1A
:1002B00000F09680401E00F09780401E00F096806F
:1002C000401E00F09680401E00F09680C01E00F098
:1002D0009580801E00F09680401E00F09680401EA3
:1002E00000F09880801E00F09980401E00F09B80F6
:1002F000801E69D0401E00F09C80401E00F09E8051
:10030000401E00F09E80801E00F09F80401E00F086
:10031000A280A5E01889FFF70DBE9868FFF70EBE12
:10032000986802F045BE02F09FBD59891889C9B28C
:10033000FFF708BE02F09ABE02F0A7BDFFF706BEA7
:10034000FFF708BE188902F0BDBE986802F073BEC0
:10035000FFF704BEFFF706BEFFF708BEFFF70ABEB1
:100360001889D968C0B2FFF709BE1889D968C0B228
:10037000FFF708BE1889FFF709BE188902F0F1BD22
:10038000D9689868FFF706BEFFF708BE9A7A597ACF
:10039000187A02F0FBBD1889C0B202F000BEFFF768
:1003A00001BE1889C0B2FFF701BE1889C0B2FFF7BD
:1003B00001BED9689868FFF701BE9868FFF702BED2
:1003C0001889C0B2FFF702BE1889C0B2FFF702BE9B
:1003D00059891889C9B2C0B2FFF700BEFFF702BE43
:1003E0001889C0B2FFF702BEFFF704BE9868FFF796
:1003F00005BE1889FFF706BEFFF708BE1889C0B210
:10040000FFF708BE1889FFF709BE59891889C9B2D4
:10041000FFF708BED9681889FFF708BE18895989FF
:10042000C0B2FFF707BE59899A891889C9B202F08C
:1004300000BE18895989C0B2FFF700BE188902F0C2
:10044000E6BD1889C0B202F0CFBD59891889C9B27A
:10045000C0B2FFF7F7BD1A69D968986802F01FBDEE
:10046000012070472DE9F843089C804604F10C00F8
:100470000F461546994680B200F020FB060016D0C4
:100480008020307086F8019040F27F607080B780E5
:10049000B57106F10C00F471B0602246099900F0C4
:1004A000BEFA31464046BDE8F44300F028BBBDE843
:1004B000F18310B502460020941E012C02D9A41E1F
:1004C00002D004E0102900E004290ED00CE0A2F1D3
:1004D0002004402C04D2BDE81040104603F026BC96
:1004E000A2F18001102900D3022010BD70B5401E7A
:1004F000052882B00C461546DFF8A4644FD8DFE823
:1005000000F0030C15182A3D00F04BF808BBE26818
:100510003146284603F0EEFE76BD00F042F8C0B941
:10052000E2683146284603F0F5FE76BD03F019FF78
:100530000FE0A06868B1DFF86C140160DFF86814A0
:1005400009888180912181710321018114214181D8
:1005500023E0022076BDDFF854341B680833002204
:100560001B68002100209847B071010AF171010C4D
:10057000000E70723172042028700EE04FF6FF708A
:10058000ADF8000002F00CFCADF8000002220220E1
:1005900028706946B01D00F042FA002076BD0120A7
:1005A00076BD257A667A3146284682E738B5012835
:1005B00015461C4602D0022809D00DE0049B0A46CD
:1005C0002146284601B0BDE8304003F0FFBF084691
:1005D000BDE8324004F01EBB0846BDE8324004F0DE
:1005E00027BB0B4601281146184608BF04F02AB85D
:1005F00004F035BB2DE9FC410F4615460024DFF819
:10060000A06380B3032849D0062837D007283AD002
:1006100008283FD00A2846D00B2852D00C2869D091
:100620000D2800F08D800E285ED00F2853D01028A2
:100630004CD011283DD012283FD0302864D031282A
:100640006BD032285BD0332800F07F80342800F054
:100650008080352800F08C80362800F08C80372888
:1006600000F09180A7E07869019038690090FB68FC
:10067000BA7A797A387A04F041FB82E0F968387AFC
:1006800004F066FB7DE0FB68BA7A797A387A04F088
:10069000A8FB76E0387A04F0D8FB72E0F968387A83
:1006A00004F0B1FE6DE03A7B7989387A05F008F8FC
:1006B00067E0B86805F041F863E0B86805F071F8E4
:1006C0005FE0F968B86805F0D9F85AE0B97A388976
:1006D00005F022F955E0387C0090FB68FA7AB97A87
:1006E000388905F068F94CE0FA68B97A388905F07C
:1006F000A1F846E03989F86805F01DF941E0F9688C
:10070000B86805F09DFC3CE03889798926282DD011
:1007100028282BDA04F02CFE33E04FF6FF78ADF8F2
:1007200000803889FF2821DA26281FD028281DDAE2
:1007300004F02BFE4045ADF8000017D002200EE07B
:10074000B97A388905F0D4FC1BE0B86804F0A3FB43
:1007500017E0387A04F0F4FB009038B104202870D8
:1007600002466946B01D00F05AF925E0022423E054
:1007700004F00BFC05E07989FA683889C9B202F007
:10078000D9FC044618E03F89B11D384602F09AFDB5
:10079000044640F201403F1A04D03F1F04D0FF1E20
:1007A00004D005E0022004E0102002E0042000E074
:1007B0000120287000E001242046BDE8F6810000F9
:1007C0002DE9F04184B0044600208DF80900012095
:1007D0008DF80800A588A079A778042D804669D8EF
:1007E000DFE805F068030A28440002AA0DF10901B8
:1007F000204600F07BF85BE00026102814D0132878
:100800000DD0142807D0152854D1E268A17A208988
:1008100001F03CFF4CE0A06803F0B0FD07E0A17AD6
:10082000208903F0A5FD02E0207A03F09EFD8DF8FB
:10083000086040E00026A8B1042804D0052806D0AE
:1008400006280AD036E0A06805F041FD33E0208993
:10085000E168C0B205F014FD2AE000F041F805F0AF
:10086000CFFC25E0A06805F026FD21E0062821D870
:10087000DFE800F01B20140F20040A002089E16843
:10088000C0B200F05FFE13E000F02AF800F02BFE8B
:100890000EE0E168208900F004FE09E02369A27BF4
:1008A000A189A06800F0D2FD02E0A06800F0A7FED8
:1008B000064600E00126204600F012F99DF80800E7
:1008C00050B13648019033469DF8090000904246E9
:1008D00029463846FFF7C6FD002004B0BDE8F08188
:1008E00061892089E268C9B2C0B27047F8B50D4687
:1008F00081792B4F00240429164626D0102910D0C8
:10090000112912D0122915D0132922D0142926D04A
:1009100015292CD017292FD018290ED019290FD01E
:1009200033E0007A05F0F6FD24E0817A008906F0D4
:100930004AF826E006F072F823E006F05BF820E0C3
:10094000C168008905F0F1FF0FE0806802F057FEF2
:1009500010E0C268817A008902F05EFE05E0837CC7
:10096000028AC168007A02F001FD04460EE00089A7
:1009700002F096FD347009E00269C168007A02F065
:10098000B7FDB8710120287000E001242046F2BDB7
:10099000DA4800206C430020E14800201647002080
:1009A0001047002001020200C6FE0000684300203C
:1009B00000B583B00821ADF8001001900B21ADF80F
:1009C00002106846DFF87416096888470EBD1FB527
:1009D0008DF806100824ADF800408DF804000624B8
:1009E000DFF858168DF808200393ADF802406846EA
:1009F0000968884704B010BD80B5052006F067F887
:100A000000F0EDF90C2000F001F802BDDFF82C1623
:100A10000968ADF802006846084706F067B803E0C9
:100A200011F8013B00F8013B13465A1E002BF7D189
:100A300070471144491E03E011F8013900F8013BE9
:100A400013465A1E002BF7D1704770B504460D4669
:100A5000A8B206F067F8060003D02A462146FFF741
:100A6000DEFF304670BD10B513465A1E3BB110F87C
:100A7000013B11F8014BA342F6D0002010BD01202C
:100A800010BD10B5044610460A460146204606F041
:100A900069F8204610BD03F05BBCDFF8A425DFF841
:100AA000A435126A11541B7805E0DFF89835DFF899
:100AB00090251B78126AC0181154704710B50400B5
:100AC00001D1002010BD04F10C0080B206F02AF81C
:100AD00028B1002101600481FF2181720C3010BD1A
:100AE00080B508B9052002BD10F8021CFF2901D00D
:100AF000042002BD0C3806F022F8002002BD38B5F3
:100B00000C46010622D5DFF838150A78FF2A08BFFF
:100B10004D7805D0DFF82C351B78096A9A188D5C62
:100B2000FF2D02D1FFF768FF0EE000F09BF90146B0
:100B3000FF2004F8020C234600222846FFF747FF57
:100B400048B12046FFF7CCFF012032BD2146BDE869
:100B50003840002200E032BD70B50D000446164654
:100B600018D0200648BFFFF747FFDFF8D8140978F0
:100B70008C4204D32846FFF7B3FF032070BDA5F1D4
:100B80000C000168002904BF817AFF2904D028469F
:100B9000FFF7A6FF052070BD8472012EDFF8A004C8
:100BA000294603D1001D00F055F802E0001D00F0B9
:100BB00039F800F033F8002070BD2DE9F04104460B
:100BC000DFF88404DFF8787400688047804678682E
:100BD0000026002503E005B9064650F80C0C50B17C
:100BE00010F8021CA142F6D1002D08BF0546F4D032
:100BF00000F014F805E04FF40041204600F0A4F89E
:100C000025B132462946381D00F031F8DFF83C1492
:100C10000968404688472846BDE8F0814FF4004106
:100C2000204642E038B500F00FF8002145F80C1CD2
:100C3000216811B9256006E0114651F80C2C002AF4
:100C4000FAD141F80C5C27E10446DFF8FC030068A8
:100C50000D46004738B5FFF7F7FF216845F80C1C33
:100C60002560DFF8E8130968BDE83440084770B52F
:100C7000044600F014F8A5F10C0123680A689D42AF
:100C80000CBF226046F80C2C00220A60FF228A72F8
:100C9000BDE8704002E1DFF8B41309680847DFF8E7
:100CA000A80300680D46164600472DE9F0410446AA
:100CB000DFF89003DFF8885390F8008020060E4696
:100CC0002CD50420FFF7FAFE070008BF042039D016
:100CD0004FF6FF7038807E80A7F10C062878FF2839
:100CE0000FBF6D78296A40440D5CFF2D05D1384651
:100CF000FFF7F6FEFFF780FE0EE0204600F0B2F8A8
:100D0000FF21B1723B46014600222846FFF75FFEF5
:100D1000C0B13846FFF7E4FE012013E0444510D28D
:100D200000F028F8DFF82813096831F8142032435E
:100D300021F81420FFF7AFFFE868FFF739FE002025
:100D400000E00320BDE8F08138B50C46BD490978C4
:100D5000884205460CD200F00DF8BD49096831F80B
:100D60001520A24321F81520FFF795FF002032BD82
:100D7000032032BDB4480068004730B5B04C0020B5
:100D8000606083B005F030FF06F07DF8AD4805786F
:100D9000680005F0C7FE20626A00FF21FFF771FEC0
:100DA0000222FF21A01CFFF76CFE06F0C3F800F042
:100DB00016F81420A14D2968ADF80200684688474E
:100DC0000198206100F00BF81520ADF8020068468C
:100DD000296888470198801E606100203EBD082078
:100DE000ADF80000704730B587B00820ADF80800B6
:100DF0001B20ADF80A0001200390914D0FF27D00F9
:100E00008E4C21680590E8690690A869049002A8B4
:100E100088470499A96108B1FFF7EEFD00F053F887
:100E2000FFF7DDFF0A20ADF802004FF0FF30019020
:100E3000684621688847F1E780B50021804A0A4466
:100E40009378FF2B01D1907001E0834203D141F0F0
:100E50008000C0B202BD491C0229EFD3FFF7CCFDD0
:100E6000FF2002BD10B580F08004022CA8BFFFF760
:100E7000C3FD73482044807810BD000038B5044697
:100E8000FFF778FF05466E48C1698C4204BFC06811
:100E9000FFF78EFD4FEA0500BDE834406B49096855
:100EA000084710B50446608850B9A079FFF7C4FF21
:100EB000FF28E07102D16FF0030010BD002010BDCB
:100EC0006FF0010010BD2DE9F04F8BB005F0AFFFC2
:100ED00000245FEA000B03D005F0BBFE4FF0FF3BA0
:100EE000574DA868010003D0804701E0FFF784FD5B
:100EF0000820ADF808000720504E3168ADF80A0010
:100F000002A888474F499DF80E20049F0978E8B948
:100F1000002600E0761C8E42E8D2286A805D90426E
:100F2000F8D1F6B2FF2EE1D017F8080CFFF784FFD6
:100F300017F8061C012908BF387002D0022908BF23
:100F4000B87039463046FFF7DAFDD1E7404F3868D0
:100F5000E4B230F8140018B9641CE0B28842F5D34A
:100F6000E0B28842DFF8E480DFF8DC901DD2D9F8E7
:100F7000000080473968E4B231F814A0002200F084
:100F800047F8344A2C70514652F8242020469047A6
:100F90008246FF202870D9F800008047396831F870
:100FA00014204AEA020200F033F805F040FF074639
:100FB0005F452AD007B9284F6869B84238BF07464D
:100FC000D9F8000080470446FFF709FF1C20ADF860
:100FD0000200A86931680190684688470821E869DD
:100FE000ADF81410401C1321E861ADF816100990FB
:100FF00006971A49A8690891079005A8316888479B
:101000000798A861204600F005F80BB0BDE8F08F06
:1010100021F81420D8F80010084710B548B1002373
:1010200000E05B1CDCB2944205D2DBB2C45C8C42B3
:10103000F7D0002010BD012010BD0000D8470020CF
:10104000A4440020C4FE0000DC470020E04700204C
:10105000F04700209CFE00008EC2F5287D0E0100A6
:10106000DFF800F0F5950010DFF800F03196001081
:10107000DFF800F05D9600100A4610B5052A18BF8B
:10108000042A03D0062A18BF072A08D10C24484B8B
:1010900062431A4422F8301D9070002010BD0220D7
:1010A00010BD38B50D4604462888052818BF042809
:1010B00003D0062818BF072801D1686808B90220A4
:1010C00032BD0121204605F07EFC08B9142032BD56
:1010D0004FF6FE70844207D0204605F0B0FC298907
:1010E000884201D21B2032BD3248007800282946B0
:1010F000204603D0BDE8344003F074BBBDE8344063
:1011000003F026BB80B52C4B009313460A46012101
:101110001AE070B50D4684B004461646EB88AA88DE
:101120006988288801F082FE58B10020029001965B
:10113000042000902A46214B1221204603F09EFAFB
:1011400000E0182004B070BD03F0CAFA02BD38B543
:1011500004461B480129017011D11A480088051D59
:10116000ADB20120FFF77CFF94FBF5F082B2284678
:1011700001B0BDE8304000230021FFF775BFBDE896
:1011800032400020FFF76CBF03B50D4800780128FE
:1011900081B003D102AA01A9FFF76AFF07BD094A7E
:1011A000001F108003480170704706480088704790
:1011B0008C480020E6460020E54801006349010014
:1011C000DF480020FC460020704700006E490860A0
:1011D000704780B5002200920B4601226B4900F057
:1011E000BAF802BD80B50A88172A05DB00220092F2
:1011F0000B4603226649F2E7022002BD38B50D46D0
:101200000446A878012818BF02280DD12888002894
:101210001CBF6868002807D0022103F045FD00903C
:101220002B4605225B4931E0022032BD38B500F083
:101230001EF81CBF6868002806D000F036F8009041
:101240002B460722544921E0022032BD38B500F078
:101250000EF81CBF6868002807D0022103F024FDA7
:1012600000902B4609224D4910E0022032BD0D4668
:10127000044628880028704738B500F024F808B1E3
:1012800000F013F800902B460B224549204600F051
:1012900062F832BD38B500F016F808B100F005F874
:1012A00000902B460D223F49F0E7012103F0FCBCE2
:1012B00038B500F008F808B1FFF7F7FF00902B46AB
:1012C0000F223949E2E70D4604466868704738B591
:1012D000FFF7CDFF1CBF6868002807D0022103F08C
:1012E000E3FC00902B4611223049CFE7022032BDAB
:1012F00080B5002100910023132270E738B50D4618
:101300000446A86810B1052103F0CEFC00902B46DE
:1013100017222749BAE780B500210091002319223E
:101320005DE738B5FFF7CFFF10B1032103F0BCFC38
:1013300000902B461B2209E038B5FFF7C4FF10B11F
:10134000032103F0B1FC00902B461D2219492046D1
:1013500005F08FFF32BDF8B504460698009015469B
:101360001E46204605F085FF07000AD106480268A0
:10137000100006D0012D04BF3078451CE9B220468C
:1013800090473846F2BD0000084800207770010001
:1013900093700100AD700100077101004B710100F5
:1013A00067710100BF710100E3710100E771010085
:1013B0002172010051720100DFF8581C087070475B
:1013C00038B5DFF8544CDFF8545C20762878C0003C
:1013D00005F0A8FBE061C8B1002108E04FF6FF72FC
:1013E00020F8312000EBC10300225A60491C2A7802
:1013F0009142F3DB052000F0AFF8207E01F058F8B1
:10140000BDE83240DFF8180C05F01FBA31BD38B521
:101410000C46200418D5DFF8000C007EFFF7CDFB4A
:1014200005000ED02878B02808D1284600F0FDF835
:1014300020B1297905F1080003F004F92846FFF7E7
:101440004FFB84F4004032BD002032BD7CB5060065
:101450001C460DD0ADF800108DF8022001966846AC
:1014600000F0B8FF05001AD1CCB17689300001D167
:10147000022514E00C2005F055FB08B913250EE0F9
:101480000021016086808460DFF8981B0A6812B929
:10149000086004E00A4611680029FBD11060284664
:1014A00076BD30B50C46DFF87C1B0546086883B076
:1014B000002201E00246006898B18388AB42F9D16E
:1014C0000368002A0CBF0B60136005F038FB694607
:1014D000284600F0CDFF010002D10CB10199216036
:1014E0003EBD01203EBD70B550BB012926D1DFF8BD
:1014F000280BC169002300E05B1CDFF8204B247837
:10150000A34217DA31F833404FF6FF75AC42F3D0FF
:10151000002400E0641C467EE5B2B542ECD201EB4B
:10152000C305E4B26D680C266643AD5B002DF1D0B7
:10153000012070BD1078BDE870400DE0182070BD2E
:10154000022070BD0022002803BFDFF8CC0A407ED5
:1015500008700222104670472DE9F843DFF8B87A88
:101560000446002078760C25F869DFF8B06A4068F8
:1015700005FB04F870B105F0E2FA002006E0F96915
:10158000C0B201EBC00100224A60401C3278C1B2F7
:101590009142F4D3307808FB00F080B205F0C2FA33
:1015A0005FEA000928D0307808FB00F200214846A5
:1015B000FFF767FA00200FE0516805FB0CF34FF0CE
:1015C000000E21F803E019440CF1010CC1F808E009
:1015D000A445F1DBC144401C3278C1B2914208D22B
:1015E000F969C0B201EBC0024FF0000CC2F80490E0
:1015F000EEE77C76002000E01320BDE8F283014690
:101600000020C90705D5002310220121DFF8180C9E
:101610001CE77047DFF80C1A096821B18A888242FA
:10162000FAD188687047002070472DE9F04186B0F4
:1016300004460020ADF8100001208DF81200DFF8FC
:10164000D859286A38B9FFF7B0FD05F06BFA0028C1
:10165000286200F0E280182200212846FFF711FAE4
:101660002079461C02284FF6FF7817D006282CD088
:1016700008282FD00A2833D00C2857D00E2800F085
:101680008B80102800F08D80122800F08F801628A3
:1016900000F09380182800F09780BBE0FFF785FDED
:1016A000288029466088FFF79DFD00282189288829
:1016B00004D0814228BF01462980A0E0814228BF92
:1016C0000146608802F02DFFA4E004A9204600F046
:1016D000AEF87DE004AA0021204600F02CF977E066
:1016E00000F0A0F8070052D0608805AB42460B21FD
:1016F00002F06CFF03006B6024D02079BDF8162047
:10170000039000953946BDF8140002900020019026
:1017100000F026FA070004D160882946FFF7ACFDE7
:1017200029E0162F686808BF00272BE000F07AF840
:1017300007002CD0608805AB42460D2102F046FF21
:10174000686020B92089ADF81000112745E02179A3
:10175000BDF8162003910346BDF81410029161896B
:1017600001910095394600F0FBF9070006D1608829
:101770002946FFF78FFD002841D12AE0162F68681F
:1017800008BF002703F06BFA380001D121E00127E0
:101790002089ADF810001CE004A9204600F06EF985
:1017A00016E004A9204600F0E9F911E00DF112025B
:1017B00004A9204600F086FA0AE00DF1120204A9FD
:1017C000204600F0C0FA03E004A9204600F029FBFF
:1017D0000746380011D0162F11D0607814280CD08D
:1017E000207928702F712946BDF810006880608824
:1017F000FFF7EFFC08B1012601E0162F0AD160883F
:101800002B46F2B2162102F082FE18B1F1B2284640
:1018100002F018FF204602F0B1FD9DF8120006B05C
:10182000BDE8F08120890DF1160100F0B9BE2DE967
:10183000FA47044686B06088DFF8DC5705F0ADFD56
:1018400080460DF1120000F0D4F8002781464FF0D9
:10185000FF0AB9F1000F5BD009E0BDF81030435426
:10186000BDF81000696892B2000A8854571CBFB2D4
:10187000A8F1050087424BDA207903900026A8F1F1
:10188000070080B20290019605F11A0000902B6AC1
:10189000BDF812206088494600F0CCFB002802BF4A
:1018A0006A8B208A904214D1296A6069FFF7DBF8BD
:1018B00078B1686858B900F055F9072102F086FE42
:1018C000686020B9069920890880112030E0B9F8B5
:1018D0000A60BDF81220618904AB484600F086FE1C
:1018E000002E8146B5D06868C655781C6A6880B2FB
:1018F00031121154411C4A1C6868B9F1000F89B2B9
:10190000ABD100F801A092B2686800F802A0571CA1
:10191000B8B248B13F04B80C288029466088FFF768
:1019200085FC28B1162003E00699208908800A204A
:1019300008B0BDE8F0872DE9F043044685B0608823
:101940008846914605F029FD851EADB2DFF8C876C0
:1019500001E0401C2081A81E398988422FDB5FEA04
:1019600008002CD104A800F044F8060027D07089A4
:101970002081BDF81020317A608800F09DFD5FEA7B
:1019800000081CD120793B6ABDF810200390314635
:10199000A81E80B200F0EBF800F0E2F85FEA000861
:1019A0000DD173897A8B396A608800F02AF85FEA72
:1019B000000804D120894FF6FF718842C9D13889C7
:1019C00001000AD0798890FBF1F0388039466088B0
:1019D000FFF73CFC50B1162008E05FEA08002089C0
:1019E000A9F8000008BF4FF00A08404605B0BDE85E
:1019F000F0830090237B6189208904F10D0200F0BF
:101A0000A0BD2DE9F8468246894615461E4605F0DA
:101A1000C4FCDFF804460746208990B900F0A3F81B
:101A20000921504602F0D2FD606008B9112023E080
:101A3000A81C60803A1F208901466B189A4206D282
:101A400003E06088A91C8842F4D0012014E0401C07
:101A50002081606846542089411C2181310A6268D6
:101A60001154606823892A4649461844FEF7D7FF77
:101A70002089281820810020BDE8F2862DE9F04752
:101A8000044686B06088DFF890750D4605F085FC49
:101A90000026A0F10109A0F1010814E03888798B33
:101AA0000346C9188845BCBFA9EB00007883786855
:101AB0007A8B396A1844FEF7B2FF3888798B081898
:101AC000761C3880B6B2A0898642BCBF38884045B3
:101AD00034DAA06810F8162000EB460004A940781C
:101AE00002EB002080B200F05BFD010009D14FF055
:101AF000010A00F02BF8786808B103F0B0F85046FE
:101B0000DDE02079BDF8102003901FFA89F000F085
:101B10002EF83B6A00F024F800288246E9D1786864
:101B20000028BBD100F01EF80F2102F04FFD002865
:101B30007860B3D100F00AF81120E1E760883946F7
:101B4000FFF7B6FB0028DBD01620D9E7A06810F815
:101B5000161000EB4600407801EB0020288070470B
:101B6000608867E2608800234FF6FF72704702903A
:101B70000020019007F11A00009070472DE9F0470E
:101B8000044686B06088DFF89054894605F005FC6D
:101B9000059004F10D0204A80090237B618920893F
:101BA00000F0CFFC0026B24607464FF0FF0810E0D9
:101BB000696801F8068080B2696801F80080461CF7
:101BC00068686A8B296AB6B28019FEF728FF688BAD
:101BD0008619B6B2FFB1BDF81020397A608800F0DE
:101BE0006BFC5FEA000A13D12079BDF81020039046
:101BF00039460598801F80B202900020019005F1BF
:101C00001A0000902B6AFFF7ABFF5FEA000A10D0C2
:101C10007889A9F80000002E48D0688896FBF0F07B
:101C2000288029466088FFF752FB002847D01620FD
:101C300045E07EB9FFF796FF112102F0C7FC68600E
:101C400020B97889A9F80000112038E0688B001DC0
:101C5000688009E0688B6988021D9142DDD1059991
:101C6000891F80198142D8DB69687889885579890C
:101C70006A68701C80B2090A1154461CBDF8102015
:101C800061890DF11203384600F0B0FC0746701C64
:101C9000002FB6B28CD06A68BDF81210915580B290
:101CA000BDF812106A68090A115488E75FEA0A0051
:101CB0002089A9F8000008BF4FF00A0A504606B074
:101CC000BDE8F087FEB504460D462089164602A9F8
:101CD00000F066FC07002ED0387A80060BD5BDF8E0
:101CE000080000F0A1F903000BD0608812223946E9
:101CF0009847070020D1607C002814BF522020792B
:101D000001E00E2718E00190002000906389E2684E
:101D10002189608800F08AFA070007D1607C68B9E1
:101D20006088FFF7E5FA48B11620FEBD162F03D1F3
:101D30000027377002E0012720892880607C00B1ED
:101D400000273846FEBD2DE9F041044682B00D461D
:101D500060889046012104F036FE002718B914204F
:101D600060700E205BE02089694600F019FC0600D7
:101D700051D0307A80060BD5BDF8000000F054F940
:101D8000030013D06088122231469847070043D1E0
:101D90006688304600F008F928B94FF6FF7000F069
:101DA00003F9A0B3068000219B4E02E00E2733E02A
:101DB000491C737ECAB29A4229D24268C9B20C2326
:101DC0004B4313441A88002AF2D10C2204F1080173
:101DD0001846FEF724FE002088F800000C2204F1CB
:101DE00008013046FEF71BFEA289608800231721F8
:101DF00002F0ECFBB06060B1A2892169FEF70FFE32
:101E000060883146FFF77AFA40B1162007E00927CB
:101E100002E0112700E00127208928803846BDE82C
:101E2000F6812DE9F043044683B06088894600F0CE
:101E3000BBF800265FEA00084CD0207A012845D183
:101E4000414604F1080000F051F8A0B1D8F8047040
:101E50001820019078880090BB88BA68398860881B
:101E600000F0E4F90646162E02D10020B8602DE0FD
:101E700060B3388828E000270EE001906888009061
:101E8000AB88AA68608800F0D1F90646162E18D1F2
:101E90000020A8607F1CFFB25F48407E874215DAB1
:101EA000D8F804100C227A430A44154629880B00FE
:101EB0000CD07B1C83421DBF90890028162018205F
:101EC000DBE7002EE6D02888A9F80000404600F0A5
:101ED00080F82EB96088FFF71EFA20B1162003E0C3
:101EE000162E08BF00263046BDE8FE832DE9F84FC8
:101EF0000C460020002700264FF00C0B46490DE051
:101F0000984202BFBCF8025093B2AB4224D1BCF855
:101F10000430DF19BFB29A1892B2761C4B7E9E42F3
:101F20000FDA63680BFB06FC9C44BCF8003043B13D
:101F30000028E5D1BCF80470BCF802201846BA1895
:101F4000EAE7022E2DDB38004FF0000904D002F042
:101F50006FFE5FEA000801D1002023E0CA461AE0C4
:101F60000BFB0AF14518A96859B1AA8808EB0900CA
:101F7000FEF755FDA88848441FFA80F9A86802F0CA
:101F80006EFEBAF1000F04D00C2200212846FEF7A5
:101F900078FD0AF1010AB2456068E1DBC0F808800B
:101FA00087800120BDE8F28F10B51B4AD26900215D
:101FB00000E0491C194C2478CBB2A34207D2C9B225
:101FC00032F831308342F4D102EBC10010BD002061
:101FD00010BD70B5044600250BE0B06808B102F0F2
:101FE0003EFE0C2200213046FEF74BFD00203080E3
:101FF0006D1C0949497EE8B2884207D26068EDB29B
:102000000C216943461830880028E6D14FF6FF704E
:10201000208070BDFE4600201C480020544800204F
:10202000D32201004048002080B5FFF7F3FA00B149
:10203000806802BD2DE9FE4F0D468046287AC00615
:1020400093461E464FF0000A0CD55846FFF7ECFFAA
:10205000030000F0E4800A22294640469847002801
:10206000824649D128780C9F0D9CDDF838900228D3
:1020700016D100F018F94FF42051401A012810D958
:10208000801E3AD0401E14D0FD3876D0401E00F09D
:102090007D80401E6AD0401E6FD0401E00F09180AF
:1020A000A7E0002C2AD1E8680178398002784168DD
:1020B00083E0002C22D1012038800021E8680078DC
:1020C00030706889401C80B200F06AFA398860B1CB
:1020D0000278921C51183980418971704189090A2E
:1020E000B17002784168F01C68E0081D3880042255
:1020F0000021701CFEF7C5FC93E0002C62D1E8685B
:102100000488042038803470200A70700DF10201B8
:10211000204600F045FA05001ED0EC68BDF802200C
:102120004FF6FF786B46414600F060FA40B92B78D5
:102130006A688B48022105F0DFF808B9ADF8008025
:10214000207802280AD161680222301DFEF767FC60
:102150003888801C388001E0ADF80040BDF80000F0
:10216000B070BDF80000000AF0705AE054BBE86897
:102170000168404605F044F902E01CBBE8680088AD
:10218000022139803070000A70704AE0E868FEF77A
:1021900044FC82B2A242B8BF4FF0070A41DB94422E
:1021A00008BF002206D009EB04019142B2BF4A46A3
:1021B000121B92B23A80E96821443046FEF72FFCA8
:1021C0002FE014B14FF00B0A2BE0E86807213980AB
:1021D00001783170417871704188B1704188090A85
:1021E000F17001793171C1887171C088000AB071D4
:1021F00017E05846FFF70EFA00281CBFD0F800C0C1
:10220000BCF1000F0BD00F980290CDF80490009411
:102210003B46324629464046E047824601E04FF0C1
:102220000E0A5046BDE8FE8F084600202DE9FE4309
:102230008046894617461E4602A9484600F0B0F976
:1022400005002CD0BDF80800FFF7E4F900281CBFFA
:10225000D0F804C0BCF1000F1FD00A980B9C00906E
:10226000019433463A4629464046E0470646B8B907
:10227000FE2C15D02878022812D100F014F842F66E
:10228000021188420CD13878797800EB012082B2B3
:102290004946404600F047F802E00E2600E00126DD
:1022A0003046BDE8FE8368680178407801EB002085
:1022B00080B27047E0B58DF808200223120A8DF82D
:1022C0000920FE2201920022009202AAFFF7AEFF2F
:1022D0000EBD7CB50129044605D0022922D1012179
:1022E00004F071FBF0B92046FFF75EFE08B1FFF77E
:1022F00070FE01A800904FF6FF750223194A294687
:10230000012000F01EF90BE0F0680168204605F09E
:102310005DF8BDF8042000232946304600F066F938
:102320000600F1D173BDF8B50F4F04463878FF2889
:102330000D46164611D00A20FEF7C0FB68B1B12148
:1023400001704480002141700171C5800681014601
:102350003878BDE8F440FEF7D2BBF1BD00000000C4
:102360009CCC0100A4CC0100FE46002070B5DFF833
:10237000385A28780624604304F0D4FBDFF82C1A7E
:10238000086008B9132070BD0020FF2206E03380EA
:10239000401C0023F270B2703371C0B22B789842A7
:1023A0000ADA0B6804FB00F61E4400280CBF4FF647
:1023B000FE734FF6FF73EAE70FF2514001F0D2FFD0
:1023C0000FF61510FEF702FF0FF6551004F03DFA58
:1023D000002070BD70B50446208868B1606803783D
:1023E000426800F040F948B9606803784268DFF855
:1023F000C00900F03AF908B9022070BDA078C01FEA
:102400000A2801D3182070BDDFF8A85928880100D8
:1024100004D02188C0F58030884201DA012070BDE7
:102420000C2004F07FFB060001D1132070BD0020BA
:1024300008E06268298880B202EB0012401C5181DA
:10244000491C298081B222889142F2D30020306059
:1024500008222146301DFEF7E2FA686810B96E6066
:1024600004E0084601680029FBD10660002070BD29
:1024700038B502460846DFF83C194C68002301E0F5
:102480002346246894B1A5686D899542F8D12268E5
:10249000002B0CBF4A601A6018B10822211DFEF7FC
:1024A000BEFA204604F04BFB002032BD012032BDB5
:1024B000DFF804190870704710B50446104614225E
:1024C000114203D000F0DAF8012204E04A0608D5F0
:1024D00000F0D4F8002201462046BDE8104004F088
:1024E000B4BAC80701D4022010BD002010BD70B5D9
:1024F00005460E46B0061C4609D5104600F0BEF84B
:1025000001462846BDE87040012204F09EBA8820AA
:10251000064210D0104600F0B1F8014606F008025D
:10252000284604F092FA010009D0617A41B1217A7B
:10253000012904D070BDB00701D4032070BD002074
:1025400070BD2DE9F0478146DFF8680844688A4687
:1025500090461E4600E02468FCB1002700E07F1C86
:10256000A188B8B28842F6D2A068BFB200EB0715C6
:102570006889484528BF8245F1D33EB1297868680B
:102580003346424604F0B8FE0028E8D0089810B15F
:10259000A16849890180284600E00020BDE8F08755
:1025A000F0B5DFF81028546800E02468E4B1A568AD
:1025B0006E89B042F9DBA788BA199042F5DA4FF07C
:1025C000000C01E003F1010C1FFA8CF2BA42ECD2CC
:1025D0001FFA8CF305EB0312B2F80AE08645F1D13D
:1025E00001B10E801046F0BD0020F0BD2DE9FC4188
:1025F00004460027ADF804704FF6FF786089404527
:1026000015461E4608D001AA0092401C2378626835
:1026100080B2FFF796FF07462378626800F023F840
:1026200030B923786268DFF8880700F01EF808B137
:1026300060890CE023786268DFF8800700F015F805
:1026400058B11FB1BDF80400A84203D0284600F0DD
:10265000D2F803E07889404400E0608906B1308018
:102660003846BDE8F681DFF85807022104F044BE81
:1026700080B500F0F3FA00B1008802BD80B500F02B
:10268000EDFA08B1807802BD102002BD70B50129B5
:1026900082B00446154616D0032918D0052925D046
:1026A000072927D0092929D00B292BD00D292DD076
:1026B0000F292FD0112931D0132933D0172934D025
:1026C000192936D039E02946FEF783FD33E0FEF7BD
:1026D0006CFDADF8000069462046FEF783FD06005C
:1026E0002CD12988204601F01CFF27E02946FEF75F
:1026F00085FD20E02946FEF799FD1CE02946FEF7FE
:10270000A5FD18E02946FEF7B7FD14E02946FEF7BF
:10271000C1FD10E02946FEF7CBFD0CE02946FEF78F
:10272000D6FD08E0FEF7E4FD05E02946FEF7E6FDEC
:1027300001E0FEF7F0FD064600E00226304676BDD9
:102740002DE9FC410E46054617461C4601A900F03E
:1027500092FA804638BB380014D00020ADF8000053
:1027600069463088FFF71CFF012FBDF8000018BF35
:102770000027FFF783FF01463A46284604F065F933
:10278000804680B931462846FEF7D6FD804650B9CE
:10279000019DFF2C07D0AB1C1E2229460FF255507D
:1027A00001F0A1FEEC704046BDE8F6817CB50D4617
:1027B0000446164601A900F05EFA17281AD0300028
:1027C00014D00020ADF8000069462888FFF7E8FE25
:1027D000012EBDF8000018BF0026FFF74FFF01468D
:1027E0003246204604F031F9010003D12946204643
:1027F000FEF797FD76BD10B50446FFF739FF0100DF
:102800001CBF611E0C18A0B210BD00002DE9F043E2
:102810000D4689B08146A87800261E28174614D197
:10282000484600F03CFA06001EBFB078FE28FF289C
:1028300022D0002000900022AB78F078494601F0C9
:1028400027FE304600F040FA16E0122804BF6878F0
:10285000012813D0484600F022FA06000ED0327943
:1028600010000BD0100607D4A978484601F06CFE82
:10287000307940F080003071002069E0DFF83845A1
:102880002078FF2812D0A878811E17290ED200F0D8
:102890008AF958B1A87800F0B3F938B1287810B99E
:1028A0006878012804D1A878122801D006204FE0CA
:1028B000A87800F078F9844602A80090AB88AA684E
:1028C00069782878E0470028804640D1A87800F051
:1028D00097F9024602A9484690478046D8B9AB7896
:1028E000042B34D002A8009000222078494601F041
:1028F000CFFD804658BBA97802A801F03DFE08B183
:1029000000203870A878122804BF697801291ED0E9
:10291000EEB130711BE06878C8B9A8788DF8000076
:102920008DF804806946A878042818BF0628BDF8E9
:102930000800ADF802004846FEF74BFC28B16B4694
:1029400001221621484601F0E2FD4FF00008404602
:1029500009B0BDE8F083002070472DE9FE430D4625
:10296000804628886988814201D3010001D1012075
:102970006DE00021ADF8041002914FF6FF7900E000
:10298000401C0021009100236988002280B2FFF7DB
:10299000D8FD070037D0BDF80400002838D16B46B9
:1029A0004A460521404601F011FE040001D11120E4
:1029B0004DE002943878022806D101208DF80600F7
:1029C000BDF80000860827E002208DF806001221DD
:1029D000BDF8000090FBF1F63878102813D1788903
:1029E00004F8010B102200F034F81034BDF8040094
:1029F000401CADF80400B1B2BDF80400884202D218
:102A000078894845BCD1BDF8040080B90A201EE091
:102A10009DF806000128DFD138780228F3D17889A3
:102A200004F8010B022200F014F8A41CDEE701A94F
:102A30004046FEF7E3FB48B101AB052216214046B4
:102A400001F065FD10B1029802F009F90020BDE81F
:102A5000FE837889000A04F8010B20467968FDF7A7
:102A6000DEBF10B582B04C880888844201D30200D2
:102A700001D1012016BD00F016F808B90A2016BDD4
:102A8000002016BD10B582B04C880888844201D35E
:102A9000020001D1012016BD00F005F808B90A2096
:102AA00016BD002016BD002200924A1D0B7921465A
:102AB00047E510B5044682B0084669460088FFF72E
:102AC0006FFD08B9012016BD017ABDF8002020462F
:102AD000FFF7F2FC16BD70B582B006460D46002425
:102AE00001E0641CA4B2A888844229DA286810F89E
:102AF000142000EB44006946407802EB002080B2CD
:102B0000FFF74EFD50B9286810F8141001702868BE
:102B100000EB440149784170012076BD017ABDF88F
:102B200000203046FFF7C8FC0100DAD0296811F810
:102B300014200A70296801EB440252784A7076BD6D
:102B4000002076BD10B50C4682B020886188814295
:102B500000D308B9012016BD23799948621DFFF7FB
:102B600084FD08B9102016BD0020009023796188EB
:102B70002088621DFFF7E5FC08B90A2016BD002079
:102B800016BD38B504460D4669462888FFF708FD8E
:102B900008B9012032BD017ABDF800202B4620463D
:102BA000FFF7A5FC32BD022814D0042814D0062853
:102BB00014D008281AD00A2812D00C2812D00E28B7
:102BC00012D0102812D0122812D0162812D018288D
:102BD00012D013E07B4870477B4870477B487047B2
:102BE0007B4870477B4870477B4870477B487047FD
:102BF0007B4870477B4870477B4870470020704790
:102C0000022814D0042814D0062814D0082814D080
:102C10000A2818BF0C2812D00E2812D0102812D063
:102C2000122818BF162810D0182810D012E06F48AC
:102C300070476F4870476F4870476F4870476F48DC
:102C400070476F4870476F4870476F4870470FF282
:102C500009007047002070470020704755494968B7
:102C600000E0096829B18A6852898242F9D1081DB9
:102C700070470020704710B50C4600F010F860B1A6
:102C800004B120608078FE2801D1172010BDFF28F4
:102C900001D1002010BD162010BD022010BD10B5BE
:102CA000424A1268002100E0491C3F4C2478CBB214
:102CB000A34207D2C9B206234B43D45A8442F3D16C
:102CC000D01810BD002010BD10B50446A01C01F0A6
:102CD00012FCFF20E07010BD10B50C46FFF7DFFFBF
:102CE00030B101794A1C944204BF01F080010171A6
:102CF00010BD000010B582B004001EBFA078FF28F0
:102D0000FE280BD0002000901E232188E078172297
:102D100001F0BEFBFE20A070FF20E07013BD00009C
:102D200070B504464FF6FE70844282B037D008007A
:102D30004FF6FF760AD12046FFF7B1FF78BB304649
:102D4000FFF7ADFF05002AD0048073BD012906D12D
:102D50002046FFF7A4FF050021D02E800BE00229BA
:102D60001DD10121204603F02EFEC0B92046FFF7F9
:102D700096FF050013D0A878FF280ED0FE2807D0B4
:102D8000002000901E23E8781422214601F080FBE9
:102D90002846FFF799FFFF20A8700020287173BD17
:102DA0000448008870470000DD4800204C4800209F
:102DB0009CCC01001846002000470020A0CC010058
:102DC00098CC010089700100A3700100C57001005A
:102DD0004D7101009B710100C37101000F71010071
:102DE0006B710100F97101003F7201005729010068
:102DF0005B290100632A0100852A0100B32A010032
:102E0000D72A0100452B0100832B0100DFF800F0D9
:102E1000DD8A0010DFF800F0A18B0010DFF800F071
:102E2000D5700010DFF800F09D58001030B540F666
:102E30007B44851FA5423CBF8D1FA54212D2814213
:102E400010D3B2F5FA7F0DDAA3F10A0040F6774409
:102E5000A04207D2501C49004843B0EBC30F804149
:102E6000C00F30BD002030BD80B505F046F88DF8AC
:102E7000000005F095FE7749002008706A46764903
:102E80000880012140F6034063E080B50FF2602224
:102E9000412141F20200FFF7B9FF002002BD7CB5DD
:102EA000002808BF00294FF620442DD162BB01A89D
:102EB00005F0B1FD9DF8040000EBC000451DEDB22A
:102EC000284603F02FFE060018D020203070042082
:102ED00070700020B0709DF8040000280CBF002224
:102EE000721D311DF01C05F085F83246294620463A
:102EF00006F074F8304603F022FE15E004218DF848
:102F000001102020072106E005F074F804218DF857
:102F10000110202000218DF800008DF802106A4673
:102F20000321204606F05AF8002076BD80B5002027
:102F30008DF800006A46494800788DF801000421A8
:102F400000208DF80200464800788DF8030042F218
:102F50000200FFF75BFF002002BD01207047012047
:102F6000704738B5044642F2160529460020FFF79F
:102F700051FF204605F0D5F88DF8000020B16A46D3
:102F800001212846FFF742FF002032BD80B5012312
:102F900005F0A1FA00F01BF842F21E00D9E780B557
:102FA000012105F055FB00F012F842F21D00D0E7B8
:102FB00080B530B1014608222A48FDF730FD0020D7
:102FC00000E0122000F003F840F66340C1E78DF8FE
:102FD00000006A460121704780B542F213010C20BF
:102FE000FFF718FF002002BD80B51D218DF80010ED
:102FF00004218DF8011010B9FFF710FF00E0112037
:103000008DF802006A4603214FF61D400DE080B5A1
:103010001C208DF800006A4604208DF80100032171
:103020000C208DF802004FF61C4005F0D7FF002061
:1030300002BD05F029BD80B530B10B4902780A7098
:1030400040784870002000E01220FFF7C0FF42F2F5
:1030500001007EE7244F0020264F0020504300202F
:1030600052430020C4480020BC48002000B585B071
:103070006A460DF1020101A8FFF7D4FE8DF80800A1
:10308000212107208DF8090002AA02A881700221DF
:103090008DF80B109DF804108DF80C10BDF802107F
:1030A0008DF80D10090A8DF80E10BDF80010C171D1
:1030B000090A017241F201000921FFF7A7FE002071
:1030C00005B000BD10B582B004460DF1030105F056
:1030D000A8FC8DF800008DF80140200A8DF8020050
:1030E0006A46042141F20540FFF790FE002016BD1C
:1030F000000000800000C000000000E40000002884
:1031000022000000000000040000F7C3B37E0000AE
:1031100000000000000000000000000000000000AF
:10312000000000000000000000000000000000009F
:10313000000000007CB5164600244FF48063C21ADC
:10314000DFF8E45B21D0521E26D0521E29D0521E39
:103150002ED0521E33D0521E38D0521E3FD0521E97
:1031600044D0521E47D0521E4ED0521E74D0521E12
:1031700079D0521E00F07E80521E00F08380D21E55
:103180004DD0083A00F08A8090E0012911D13078C2
:1031900003280ADA687393E002290AD13088288567
:1031A0008EE0012905D1307802287DDAA87387E006
:1031B000012979D13078052876DAE87380E0012991
:1031C00072D1307802286FDA287479E010296BD137
:1031D0001022314605F13C00FDF721FC70E0012989
:1031E00062D1307802285FDA687469E001295BD126
:1031F0003078287564E0042956D13068DFF8981CCF
:10320000884251D2E8625BE000294DD103F0F4F925
:1032100010B900F05FFC17E00120E87550E00729C5
:1032200042D10622711C6846FDF703FC307800226B
:10323000694600F05DF906460A2E40DA03F0DCF933
:1032400030B9304600F052FC502001F071F822E015
:10325000A9190120087733E0012925D13078022807
:1032600022DAA8742CE001291ED130780A281BDA52
:10327000E87425E0012917D13078C11F0A2913D23B
:1032800068751DE001290FD1A97D3078A875002946
:1032900008BF012814D100F0C1FB11E0012903D1BE
:1032A00016B1307868760BE0182409E0282806DA91
:1032B000022904D1318802F05BF8044600E00224C0
:1032C000204676BD38B500244FF480630D46C21AFF
:1032D000DFF8541A1CD0521E1CD0521E1CD0521E95
:1032E0001CD0521E1CD0521E1CD0521E20D0521E6A
:1032F00020D0521E20D0921E21D0521E21D0521E0C
:1033000021D0521E21D0521E21D00A3A22D024E0D0
:10331000487B20E0088D24E0887B1CE0C87B1AE015
:10332000087C18E010223C312846FDF778FB1BE0B2
:10333000487C10E0087D0EE0C86A286014E0887CB4
:1033400009E0C87C07E0487D05E0887D03E000F0E7
:10335000AEFB00E0487E287006E0282803DA02F081
:1033600014F8288000E00224204632BD2DE9F04FF9
:1033700093B0914698460AAA0023C2E90033DFF8C9
:10338000A87900F0B5F88246BAF10A0F73DA4FF067
:10339000060B0BFB0AF404F1200000F06BFA002886
:1033A000787B0CBF9DF80D50002502280CBF01262C
:1033B0000026B8F1080F0BFB0AF004D1290758BF0B
:1033C00000F1220B01D500F1210B1C2200210CA8D9
:1033D000FDF757FB0CAA1C215FFA8BF000F08AFF67
:1033E00005F0010558B99DF84A00C01F0A2806D209
:1033F00000960CAB00222946484602F0DCFA142263
:10340000002101A8FDF73DFB04F1240001AA1021D1
:1034100000F032FA80B91022FF2101A8FDF7FDFD6E
:1034200050B904F1250005AA042100F025FA01AAEB
:103430002946484602F0FEF90AF1700006AA10215A
:1034400000F01AFAA0B906A800F027FA002406AD89
:10345000204635F8201041B106A901EB80018A7899
:1034600035F820104846FEF725FF641C042CEFDBDE
:10347000504600F0F7FAB8F1040F04BF787B022839
:103480000AD1797C002001B10120B97B01B104216E
:103490000143484602F02CFE002013B0BDE8F08F37
:1034A00070B503F0A9F810BBDFF87C48E07D012877
:1034B0000AD100F00FFB0020E0750A22002104F180
:1034C0001C00FDF7DEFA0CE000256619307F0128AC
:1034D00004D1284600F00AFB002030776D1C0A2D2D
:1034E000F3DB502000F024FFBDE8704096E270BD91
:1034F0002DE9FF4116460D460A246A79022102F0A1
:10350000C002C02A08BF002102D0402A08BF012102
:10351000020018BF022803D0032818BF00290DD1CC
:10352000284600F066FA04460A2C3DDA002E3BD00D
:10353000062229463046FDF772FA35E0022910D1FD
:103540000027DFF858890E20784340440622294698
:10355000C01DFDF788FAF8B97F1CFFB20A2FF2DB15
:1035600022E0012920D100270620784323306A4633
:10357000102100F081F950B91022FF216846FDF7B3
:103580004CFD20B92946684602F05AFD20B17F1C47
:10359000FFB20A2FE8DB07E00A2F3C4604DA1EB12F
:1035A0003146204600F00EFA204604B0BDE8F08116
:1035B000F8B50C4615264FF6FF71884215460BD11B
:1035C00000272A462146384600F00BF900B10026B4
:1035D0007F1C0A2FF5DB10E003F0C7F960B1811DF5
:1035E00040790022FFF784FF0A2806DA2A4621469E
:1035F00000F0F7F8002600E014263046F2BD10B5C2
:10360000DFF82447217B2063262001F0B1FE207BD8
:10361000BDE81040FDF7D0BE38B5044600250800CF
:103620000DD1DFF87408DFF87038B2FBF0F02146F6
:1036300003FB102002F099F9050003D00121204678
:1036400002F06AF9284632BD7FB5DFF8DC56044641
:10365000A178286B062900F0B680092973D00A29C1
:103660001FD00B2904D00E2965D00F297AD0ADE0E8
:1036700050B10668300007D020690090637B227B40
:103680006189E01CB047A1E020696189002814BF6E
:103690000120E86A02F069F90028F4D0608901216C
:1036A0007EE060780026002833D1A079C00730D5AD
:1036B000686B70BB0E2200F090F8606938B1007C36
:1036C0008DF806000622606900F1110109E0A0886A
:1036D00003F04BF9002879D041798DF806100622C5
:1036E000811D6846FDF79BF9A1799DF80D008908B9
:1036F00001F0010108438DF80D002146684600F0F5
:10370000DBF828B9287B0221FDF7CFFA00205EE024
:103710001526286B002859D04368180056D06278C7
:10372000A08801219847300050D02B6BA0885B689F
:103730003246032145E0002848D04368180045D0B0
:10374000627802213CE0E0780022211DFFF7D0FEE4
:103750000A283BDA06235843253004F10C0200F016
:1037600038F833E0A088A97C09B1E97C18E0697BCE
:1037700009B9052114E003F0F8F8060026D0A07A74
:10378000C00710D5707901000DD0E168C1F3402168
:1037900049B96A46B11DFFF7ABFE20B9A0880321E5
:1037A00002F0BAF812E07179A08804F1080200F082
:1037B000E7FA286B50B14368180007D000220021B7
:1037C000A088984702E0A088FFF76AFE012004B0B5
:1037D00070BD0421C0B200F09DBD00216846FDF718
:1037E00050B970B506460620704388B00C461546A1
:1037F000203004AA00F03FF8002838D10622FF212B
:1038000004A8FDF70AFC90BB70366A461021F0B29E
:1038100000F070FD48BB684600F03FF8200009D179
:10382000102200216846FDF7F8FBF0B91022FFF7DF
:10383000D4FF12E0694600F022F838B9280016D00B
:103840006946002000F01BF888B104808178A94205
:103850000BD085700DB900210180684600F01DF87D
:103860006A461021F0B200F055FD012000E0002072
:1038700008B070BD6A460E21C0B200F03BBD002208
:1038800031F82230834202D101EB82007047521C92
:10389000D2B2042AF4DB00207047002130F8212046
:1038A000D24320F8212000EB8102491C9378DB43AE
:1038B00004299370F2DB70472DE9F043DFF8684488
:1038C000DFF8D8958046606B85B00F460E26E8B9C4
:1038D000B8F1000F18BF002F70D0404600F089F8F3
:1038E0000A28207612DB002506FB05F00622FF21C0
:1038F0004844FDF792FB40B96D1CEDB20A2DF3DB95
:10390000607E002814BF25780A252576207E0A28A7
:1039100054DA0625616B6843C9B9203042460E214E
:10392000FFF758FF207E00F09DF81022FF21FFF7DF
:1039300055FF207E703000F046F9207E70430E2245
:1039400041464844FDF76BF86763002037E08A681A
:103950003AB121301C21FFF73DFF616B00208860E8
:10396000F3E70A693AB122301C21FFF733FF616B9C
:1039700000200861E9E74A693AB123301021FFF7D6
:1039800029FF616B00204861DFE7CA6882B12430FB
:103990001021FFF71FFF606BC06800F11002207E4E
:1039A00068432530FFF715FF616B0020C860CCE746
:1039B000A07D08B100F04DFA00F0D3F9012005B068
:1039C000BDE8F08330B50A2885B00C4600DA0CB9A2
:1039D00002200CE0062358432030FFF74BFF050080
:1039E00004D1062269462046FDF719F8284605B09D
:1039F00030BD70B504460025DFF8A0640E20684392
:103A0000062221463044FDF72EF808B1284670BD45
:103A10006D1CEDB20A2DF1DB0A2070BD38B5002413
:103A200000F02AFA0620604320302A460E21C0B258
:103A300000F060FC58B10622FF212846FDF721F86E
:103A40000622FF21E81DFDF71CF800206873641CA6
:103A50000A2CE5DBB448807D08B100F0FAF9BDE836
:103A600031407EE138B50A210A23AF4A5C1EDBB241
:103A7000134413F8013C834201D1214603E023465D
:103A8000E4B2002CF2D1C9B2084605E01418135C68
:103A9000657815546370401C0928F7DB092905DA9D
:103AA000BDE838400A21052000F034BC31BD70B5B6
:103AB00000240025DFF8E4630E2068430622FF217E
:103AC0003044FDF7AAFA00B9641C6D1C0A2DF3DB23
:103AD000E0B270BD10B50024204600F007F8641C69
:103AE000E4B20A2C01DA0100F6D010BD2DE9F0474E
:103AF0008D4D297E884290B0814609D1287B0121D5
:103B0000FDF722F9287B0221FDF71EF900F0B9F933
:103B1000062000FB09F505F1200607AA0E21F0B2E8
:103B200000F0E8FB002845D10622FF2107A8FDF799
:103B300074FA00283ED11C22FF21FFF74FFE10220D
:103B4000FF210BA8FCF79DFF0E22FF2107A8FCF721
:103B500098FF07AA0E21F0B200F0DCFB064605F143
:103B6000210000F02BF8824605F1220000F026F833
:103B7000804605F1230000F026F8044605F12400F4
:103B800000F021F8074605F125006A460421C0B27D
:103B900000F0C0FB48EA0A012143394340EA01052D
:103BA00009F170000BAA1021C0B200F0B3FB28434A
:103BB000304300E0002010B0BDE8F0876A461C21C9
:103BC000C0B200F0A7BB6A461021C0B200F0A2BB91
:103BD00010B5B34C207304F14C0002F0FAFDFFF76E
:103BE0001DFF22460A21052000F084FB30B1002091
:103BF000C0F109012154401C0A28F9DB10BDF0B5C1
:103C00000D46280485B0484C25D5207BFCF7D5FF10
:103C100004001DD021780120B0290FD0B12905D092
:103C2000D02904BF2046FFF70FFD0DE0207960B9D1
:103C30002289E1886088FFF7BBFC06E0217904F166
:103C4000080000F0FFFC00E010B12046FCF748FF40
:103C500085F4004065E0A80709D500210020FFF7A2
:103C60002BFE002885F0020550D102214FE0E80725
:103C700052D5606B8688A06B4FF6FF7748B904F188
:103C80002A0000900223874A39460120FEF759FC9A
:103C9000A06385F00105A16B21B3FF2003900220F2
:103CA0000290002001900DF11200009004AB628D93
:103CB0003046FEF7BFF968B99DF810009DF8111065
:103CC00000EB012290B228B1A06B418992B230463C
:103CD000FFF76EFC628DA06B00233946FEF786FC71
:103CE000A06398B9206B70B1436818000BD0606B6B
:103CF0008088002201219847606B236B80885B6875
:103D000000220321984700F0BCF803E00121207B4A
:103D1000FCF7CBFF284604E068074CBF85F00400A1
:103D2000002005B0F0BD00004844002010B5203848
:103D3000062390FBF3F30624012204FB130005285D
:103D40000DD8DFE800F00305050707090E2904E098
:103D50001C2902E0102900E0042908BF00221046B7
:103D600010BD80B5FFF7A3FE0228ACBF02200A20D9
:103D70008DF800006A460121052002F041FA01BDDC
:103D800070B5AAB006460C46154602F0EEFD08B91D
:103D900014205CE0A422FFF720FDADF80060404E47
:103DA000F07B317D8DF8040001F00102707D8DF80B
:103DB000A0002798400842EA400020F0020248088C
:103DC00000F0010042EA400020F48072080900F08F
:103DD000010042EA002020F40072480900F00100CE
:103DE00042EA402020F48062880900F0010042EAA3
:103DF0008020890820F0040001F0010140EA8100E0
:103E0000279001A9307C020008D04870102206F1EA
:103E10003C010DF10600FCF702FE01E000204870B5
:103E2000707C28B11CB1279840F002002790012037
:103E30009DF899100843B17B8DF8990001B10421D8
:103E400008438DF899002946684601F017FD2AB00D
:103E500070BD38B5FCF78EF8002400F00DF806228E
:103E6000FF212846FDF7D9F810B92946FCF786F856
:103E7000641C0A2CF1DB31BD0E2108486143451852
:103E8000704710B5064C606B18B1FCF729FE002096
:103E900060630A20207610BD40420F004847002092
:103EA00048440020A4CC0100002010B5DFF82844CD
:103EB0006070207082B000F004F9002100F0FEF87C
:103EC0000098B0F5801F02D100F0E3F80BE020B9B4
:103ED00000F0DFF800F01DF905E000F0BDF800F09B
:103EE000ABF804206080607816BD38B5DFF8E84391
:103EF0002578290001D0012032BD6188C1F58051AB
:103F000089B2814200D350B900F09EF80020607061
:103F100000F0FFF818B96578280008BF0125284689
:103F200032BD13B5DFF8B003BDF8021040881C465F
:103F3000C9B200F0CBF8010009D0DFF8A003049A61
:103F40000003A3B2000E05F087F8002016BD012083
:103F500016BD2DE9FB43DFF8806382B0002070704E
:103F60001746BDF80A90708898465FFA89F100F00C
:103F7000ADF80446B8B1002501E0641C6D1CEDB23B
:103F8000B9B28D420CD2D5480003012301AAA1B2D7
:103F900000F094F89DF8040018F805108842ECD061
:103FA000B8B285423ED0BFB2F81C411000EB917010
:103FB000801087007088BFB23818001DB0F5805F90
:103FC00003DD00F041F800F0A4F874884FF6FF70AC
:103FD000ADF800003D1947F4004000F027F8BDF8A7
:103FE0000200C0F30E0000F021F8BA05120E41469F
:103FF000204600F016F95FFA89F141F40040ADF86F
:10400000000000F015F8BDF80000C0F30E00ADF898
:10401000000000F00DF87078010004D17088391D9F
:1040200008187080002005B0BDE8F083ADF80200EC
:1040300001226946A8B2F4E080B54FF480100090E8
:1040400001226946002004E080B500200090012292
:10405000694600F0E6F801BD70B5A14800688047E8
:10406000044600F023F905469C4800030021000E99
:1040700005F013F805F01CF80646284600F00EF986
:104080000EB100F006F92046BDE870409549096878
:10409000084710B582B040F6FC7400F012F82146D3
:1040A00000F00CF8009810F1010F03D1241FA4B206
:1040B000042CF2DA8849201D488013BD000E04F05C
:1040C000CBBF8648000304236A46704738B50C46C8
:1040D000051F00E02D1FADB2042D18DBFFF7F1FF27
:1040E0002946FFF7EBFFBDF80010BDF80200A14222
:1040F00003D1C0B2281A80B232BD0104EAD4011D36
:104100008D42A8BF281AE3DA002002F0E0FC00206C
:1041100032BD2DE9F04F83B000F0C8F86E4FDFF8E4
:10412000BC9183467888041F4FF0FF080025A4B295
:104130004FEA193A2DE04FF088508119042201A866
:1041400004F0CCFFBDF804005FFA88F188421BD070
:10415000BDF80600301A061FB6B2301F40F6FC71DB
:104160008842E8D3BDF802004FF088514A19031D78
:10417000211A9BB289B25FFA8AF004F06DFFBDF894
:1041800002004019051DADB2BDF80200201A041F3F
:10419000A4B2042C2ADB04236A4621465FFA8AF083
:1041A00004F05AFFBDF800004FF6FF71884218BFB7
:1041B000002810D1BDF80200010448BF241FE7D435
:1041C000001D8442E0DA002002F081FC584600F035
:1041D00065F8002023E00004D6D4BDF800005FFAA3
:1041E00088F18842D0D080462E1FB5E7FFF734FF14
:1041F00045B12A464FF0885109F1040004F048FF08
:10420000FFF71AFF584600F049F8787828B9281DBA
:104210007880C5F5805080B201E000207880BDE84C
:10422000FE8F2DE9F04705462C480E46040B82B060
:1042300017462946E0B204F030FF8146284800685E
:104240008047804600F032F88246BA003146484640
:1042500004F01EFF504600F021F801E02D1D361D30
:104260003846471EC0B270B104236A46A9B2E0B214
:1042700004F0F2FE04223146684604F06BFF002889
:10428000ECD000F006F84046164909688847BDE8BA
:10429000F3871148012141700170704728B1124A1B
:1042A00012481268526801211047704738B50F4C08
:1042B000204604F081FF0546C0B250B10A4A126898
:1042C0005268002120469047204604F075FF0028E0
:1042D000FAD1E8B232BD0000F846002000E001004B
:1042E000DC470020E0470020D801001000400340D8
:1042F0000020D9E5E0B5ADF806000B460020ADF88A
:1043000008008DF804000092DDE901010022FFF7AA
:1043100008FE0EBD82B01346ADF802000A4600202A
:10432000ADF804008DF80000DDE9000102B010E6F0
:10433000652807DA0003642190FBF1F0C0F5805096
:1043400080B2D2E504207047DFF800F00158001079
:1043500080B502216846FFF7F7FFBDF8000002BDF7
:1043600070477047814908607047814908707047FD
:10437000032290FBF2F080B2FCF7E9BE0178B0298D
:1043800004BF417800290CD10179122903D1417C65
:10439000012906D101E01B2903D140880121FCF746
:1043A000F3BE704710B5734C607002F037FB401CD1
:1043B000207004216078FCF75FFEBDE81040FDF737
:1043C000D5BF38B50C46200411D56A484078FCF7B3
:1043D000F4FB050008D02878A02804BF284600F088
:1043E00008F82846FCF77CFB84F4004032BD00202E
:1043F00032BD30B587B0044601208DF8000001A918
:10440000204602F00BFE05002AD19DF80610574801
:10441000C9070AD54368180005D060886A4601A913
:10442000984705461CE006251AE00368180006D0E8
:1044300060886A4601A99847050001D110E0062569
:104440009DF8050060B99DF806008DF810008DF804
:1044500014500020ADF8120004A96088FCF7B9FEE2
:104460009DF8000000281EBFA068002800F0F7FBA0
:1044700045B99DF80600122806BF9DF805100129D0
:104480001B2803D060880121FCF77EFE07B030BDF9
:104490002DE9F0410446FF2C0D46164698461FD0E4
:1044A0002020FCF70BFB070018D0B02038707E707E
:1044B0007D8087F80480069929B1182207F1080049
:1044C000FCF7ADFA04E0182207F10800FCF7D9FA6E
:1044D00039462046FCF713FB002002E0132000E0E1
:1044E0000220BDE8F08110B54FF47A746243BDE854
:1044F000104004F0B0BE10B504001EBF2078FF28A5
:10450000FE2803D004F0AFFEFF20207010BD80B560
:10451000009313460A46014615480078FFF7B8FF96
:1045200002BD30B583B004460D4602F021FF50B9FC
:1045300001A80090ADF804507F230D4800780022B8
:104540002146FFF7A5FF37BD00B583B07E238DF868
:1045500004108DF8052001A90091002201460448AD
:104560000078FFF795FF07BD0000000044480020D9
:10457000FF460020DD480020052923D006291BD056
:10458000072918BF09291DD00B2918BF0D2919D0DB
:104590000E2913D00F291CBF1129122912D0162958
:1045A00018BF17290CD01B2918BF1D290AD0522962
:1045B00018BFD22906D007E0C0687047006870476E
:1045C00080687047406870470020704770B50529C3
:1045D00014461D4616D0062912D0092918BF1129E4
:1045E00010D0122912D0162918BF17290CD01B2958
:1045F00018BF1D290AD0522918BFD22906D007E0BA
:10460000072606E0022604E0052602E0032600E075
:1046100001264FF6FF72944203D102F0BEFE841BC6
:1046200002E0D22908BF0C34301980B200F0F2FA4F
:1046300038B105B12C807142BDE8704009B200F07C
:1046400033BB70BD80B5FFF797FF18B1BDE80240DE
:1046500000F005BB01BD0000DFF800F0E994001098
:10466000DFF800F0A19400100A7802704A784270D6
:104670008A78C97802EB0121418070472DE9FC411D
:104680000D4616461F460A9A0999044601AB00F0EA
:10469000F0F9804608BB0199089808703346DFF8A6
:1046A00058050178491CCAB2002A06BF012101221F
:1046B0000A46017029460198027100970198027913
:1046C000204600F00DF8804620B901981E2100F028
:1046D00015FA02E0019800F0F5F94046BDE8F681D0
:1046E0002DE9F041044684B00E461746984617203F
:1046F00000F090FA050026D00A9A100003D0414637
:10470000281D904700E00020010A2E70E9706F70AC
:10471000A8700521001DADF80800ADF80010019546
:104720006946DFF8D80400780028204602D000F05F
:1047300059F801E000F00CF80446200004D02846A7
:1047400000F08DFA00E01324204604B0BDE8F081AB
:1047500010B50B88DFF8A8240C2463431A44303AC0
:10476000536833B94B685360098950811181002027
:1047700010BD162010BD80B5052000F00FF858B907
:10478000062000F00BF838B9042000F007F818B93B
:10479000072000F003F800B1012002BD0C2210B583
:1047A000DFF85C1442431144A1F1300484B0616825
:1047B000A9B1DFF8482412787AB1ADF80000019170
:1047C00069462089ADF80800608900F00BF810B147
:1047D000606800F044FA00206060012000E00020E2
:1047E00004B010BD70B50D4604462889010004D000
:1047F000DFF810140988814201D21B2070BD68685F
:10480000042100F051FA0646288930702889000AF0
:1048100070702888B0702888000AF0702889051DFB
:104820004FF6FE70844213D10C20FCF747F90100CB
:104830000CD0902008704C8002200871CD808E60D2
:10484000DFF8C4030078FCF75AF918E0132070BDB4
:104850003346AAB200212046FFF7FEFE010007D032
:1048600002280ED0072810D012280CD01F280DD1F6
:10487000DFF8880301780A001CBF491E0170002080
:1048800070BD142070BD022070BD042070BD38B50D
:104890000446002060600879022821D1CA88042AD1
:1048A0001EDB886801784378C57801EB03218378A3
:1048B00089B203EB05230D1D95429BB210D1052B48
:1048C00018BF042B03D0062B18BF072B08D121815A
:1048D00023806FF0030100F0E7F96060002032BD33
:1048E000012032BD0B88037002220B881B0A437023
:1048F0000B88012B06D14A88827004224988090A54
:10490000C1700CE0022B0AD14A8882704A88120AD0
:10491000C2708A88027106228988090A417110468C
:104920007047022A1BDB0A784B7802EB03220280D5
:104930000288012A05D18A78C97802EB01214180D9
:104940000BE0022A09D18A78CB7802EB032242805D
:104950000A79497902EB012181800020704701200A
:1049600070470A8802700A88120A42704A88827068
:104970004A88120AC2708A8802718A88120A4271B1
:10498000CA888271C988090AC17108207047082A3B
:1049900018D10A784B7802EB0322028011F8022F1B
:1049A0004B7802EB0322428011F8022F4B7802EB86
:1049B0000322828011F8022F497802EB0121C18085
:1049C0000020704701207047022A00D101E0012039
:1049D00070470A78497802EB012101800020704776
:1049E000F8B504460D4616461020FCF767F8070098
:1049F00016D0A02038707D80002078702EB10C2257
:104A00003146381DFCF70BF804E00C220021381D5C
:104A1000FCF737F839462046FCF771F80020F2BD64
:104A20000120F2BD2DE9F04180460D4616461F4695
:104A30002020FCF743F8040019D0A22020706670F3
:104A40006580069820716771079929B1182204F1D1
:104A50000800FBF7E4FF04E0182204F10800FCF76B
:104A600010F821464046BDE8F041FCF748B8BDE8E3
:104A7000F08170B51E0004460D4621D0012101F0E1
:104A8000A2FFD8B161480078002100E0491CC9B2FA
:104A9000814211DA5E4B1B6803EB01125388002B35
:104AA000F4D10020107001F14000508022B1D48078
:104AB00015723260002070BD152070BD142070BDCD
:104AC000012070BD10B5044610220021FBF7D9FF6C
:104AD00023E0002200E0521C4C4909788A420BDA9C
:104AE0004B49096801EB02114B88002BF3D00B797D
:104AF0008342F0D108467047002070474FF47A7225
:104B00004A4300F1090301460FF2190004F0A3BB68
:104B100010B50446607A04F0A6FBFF20607210BD59
:104B20000000000010B504001CBF6088002807D0FA
:104B30001721204600F005F82046BDE81040C1E7E7
:104B400010BD1CB50446207804280FD10020019028
:104B500000900A46E188207A1323FFF763FFE1887B
:104B600002B0BDE81040122205202EE013BD07213F
:104B700070B50446002539BB18E025480068EDB241
:104B800000EB0516307800281CBF707AFF280CD087
:104B9000F088A04209D13046FFF7BAFF1421304611
:104BA000FFF7CFFF3046FFF78DFF6D1C17490978DF
:104BB000E8B28842E1D30425FF222146284600F0CE
:104BC00004F86D1C082DF7DB70BD10B50C240C4BE0
:104BD00060431844A0F13004608988420AD16068BB
:104BE00040B1FF2A1CBF0178914203D100F037F891
:104BF0000020606010BD0000E0480020E646002074
:104C00008C480020FC460020E4460020E5460020B9
:104C1000E846002080B5001D80B2FFF721FD28B1D5
:104C2000BDE804406FF0030100F03EB802BD000093
:104C300070B500F035F8054604F1080080B201F0C7
:104C400071FF060005D02A48B48001683160066013
:104C500008362849096828468847304670BD38B567
:104C600000F01EF8224A05461068002101E00146C6
:104C7000006878B100F108039C4221BF8388C31803
:104C80000833A342F3D3036800290CBF13600B6001
:104C900001F055FF2846BDE8344016490968084729
:104CA000044615480068004738B504460D4600F034
:104CB0000FF801000AD06842204401F1080398422D
:104CC00021BF8B88C9180831814200D2204632BDED
:104CD0000749096841B101F10802904221BF8A8861
:104CE0008A1808328242F4D3084670470000000058
:104CF000E4470020E0470020DC47002038B50225CB
:104D0000012918BF04291C4610D100F047FB0500FB
:104D10000CD10599049800F055FB204600F05FFB8C
:104D200000F03DF901F001FA04F020FB284632BD05
:104D3000DFF800F0A1980010DFF800F0BD98001037
:104D4000DFF800F0D9980010DFF800F06D9800103F
:104D500070B5DFF8F065054630680C4608B11120E3
:104D600070BD00F0E7F801D1122070BDDFF8D80562
:104D7000806800281CBF0078002801D1102070BD79
:104D80000C2001F0CFFE306040B3012001F095F916
:104D9000306805700021306841700A222146801C6D
:104DA000FBF73DFE00F0C4F9040002D000F0A9FAC0
:104DB00015E0DFF898050078032810D11D2000F0D9
:104DC000E4FADFF88C15088048B1DFF88805007830
:104DD0004EF66022042101F07BFF00E01324204600
:104DE00070BDF8B50C46DFF8701509781546052238
:104DF00011421E4627D0012CDFF84C1502D18F68D6
:104E00000FB301E0CF68F7B1202D02DA2A0002D0FB
:104E10000EB90220F2BD08701F220021781CFBF79A
:104E200030FE2A463146781CFBF7F9FD3D702846D6
:104E300024B1791CBDE8F440FFF77ABF791CBDE8C6
:104E4000F440FFF779BF1220F2BD38B5DFF8F44423
:104E5000216809B9122032BD0978814201D00320AE
:104E600032BDDFF8F0542878022101F04BFFDFF863
:104E7000D814002048800421287801F043FFDFF88F
:104E8000D014002008800320216848700020BDE86D
:104E90003240FFF755BFF8B5044600F04BF801D19A
:104EA0001220F2BD1CB1207801F0D3F808B902201D
:104EB000F2BD6078801C202823DA207800F0A3F966
:104EC00008B11820F2BDDFF880546B680021002281
:104ED00002E0B61C71181B685BB15E68767828B971
:104EE000C9B27718BF1C202FF3DB0120B61CB21803
:104EF000F1E7D0B238B16078D2B28018801C202897
:104F000001DB0B20F2BD082001F00CFE06000FD0E3
:104F1000082200F07CF8686830B100E008460168BB
:104F20000029FBD1066000E06E6074600020F2BDD5
:104F30001320F2BDDFF820040078052108427047F5
:104F400010B500F01CF801D1002010BDDFF8F833D7
:104F50005968002201E00A46096869B14C68247862
:104F60008442F8D14C680868002A14BF1060586069
:104F7000084601F0E4FD00E00024204610BDDFF803
:104F8000D8130978052211427047DFF8CC03007866
:104F90000521084218BF00F043B91220704770B5D0
:104FA000DFF8A443A06818B101F0C9FD0020A0609B
:104FB000E06818B101F0C3FD0020E0600521DFF8D2
:104FC0009853287808421CD004F1100001F0FEFB31
:104FD000287800260521084211D000F077F9A0605A
:104FE00060B100F013F800F071F9E06010B100F06A
:104FF0000DF804E0A06801F0A2FDA660132630467B
:1050000070BD002001F0E2FB002070BD20220021D5
:10501000FBF737BD2DE9F0478288DFF82863DFF81A
:105020002853316842F20607D31B4FF0010805D020
:105030009B1E012B60D99B1E0FD00BE0806800786F
:1050400041B1020003D101204870FFF779FE010051
:105050006BD038E04FF0000867E0806807780029DF
:10506000F8D04878BD4C012833D100F058F9DFF86A
:10507000E492B0B1012000F088F98246BAF1420F03
:105080000AD399F800004EF66022022101F020FEBA
:10509000AAF13C00688010E04FF47A7000FB0AFA35
:1050A00002E000F072F98246BAF1000F05D099F8DB
:1050B00000005246022101F0F3FD316802204870E1
:1050C000207818B9384600F004F92EE0002020704E
:1050D0002BE0207848BB0320FBF7F0FC48B1D0213F
:1050E0000170477004218170014630680078FBF739
:1050F00006FD00F006F918E080680778287842F28B
:1051000008018A420CBF01260026FF280DD004208A
:10511000FBF7D4FC010008D0D02008704F700220AB
:105120008870CE702878FBF7EAFC4046BDE8F0872F
:10513000F0B5844F386885B070B3847801F05CFABC
:1051400028B10A2000F021F905460B200DE000F0FF
:10515000E6F828B1062000F018F90546072004E01B
:10516000082000F012F90546092000F00EF9064665
:105170007648007800F01BFA3968CA7A0392034631
:105180008A7A029228460A1D01922246C978009125
:105190003146FFF7D9FD00E0012005B0F0BD38B57C
:1051A000014668486B4D02682878674C01291ED17A
:1051B00061880B0002D0694B1B7823B112B31078C1
:1051C000BDE8324041E63C29A8BFA1F13C000CDA21
:1051D000022101F097FD60884FF47A7101FB00F223
:1051E0002878022101F05CFD0020608031BD4AB1C9
:1051F00059490978490705D5022101F083FD0020AE
:1052000060807CE031BD5049496800E0096829B1FF
:105210004A6812788242F9D10846704700207047E8
:10522000F8B54D48007800240521084201D112202C
:10523000F2BD454DA86810B900F048F8A860E868CC
:1052400010B900F043F8E860A86800281CBFE968BE
:10525000002901D11320F2BDFFF7D8FEE868FFF75F
:10526000D5FE6E6812E09B1C50185918401C117036
:1052700071684978491C0170716809784170801C17
:1052800071684A784968FBF7CAFB3668AA6896B124
:105290003CB97068117843785F18BF1C202FE2DB9F
:1052A00001247368E9685B780A789B1C88189A184F
:1052B000401C0A70DCE71078511CFFF739FDE868E4
:1052C000411C0078FFF738FD0020F2BD202001F0DE
:1052D00029BC38B51B4D0446286878B10320FBF77C
:1052E000EDFB48B1D021017044700321817001466B
:1052F00028680078FBF703FC04B100E031BDBDE88D
:10530000314010B50F4C206840B101F018FC00206E
:1053100020600120BDE8104000F0D4BE10BD80B573
:105320000948806858B10278431C6946012000F0A2
:105330009AFE20B10078C00701D5012002BD0020EF
:1053400002BD000018480020DC4500207E450020FA
:1053500080450020F84500207D4500207F45002045
:10536000DFF800F049980010DFF800F0C95600108F
:10537000282808DA4FF6FF72914204D0CA4A22F870
:1053800010100020704702207047282803DAC64911
:1053900031F8100070474FF6FF70704770B5044643
:1053A0000D46C24E1C2200213046FBF76AFB3477C3
:1053B0007577FAF7CFFD01000EBF01210021122001
:1053C000317070BD10B5B94CE160A06010220021B1
:1053D000FBF723FE012801D1A0680CE010BD10B539
:1053E000B24C606010220021FBF717FE012801D1AA
:1053F000606800E010BDBDE81040102104F079BBEA
:10540000AA48406870472DE9FC41A84D0446002693
:1054100095F81E80042C0F4624DA2878032818BF3C
:10542000102054D101F0E8F828B900F00BFE10B9B3
:1054300000F00AFE08B1122049E0012C18BF022C2E
:105440001DD1BFB1062200216846FBF71AFB00F010
:1054500040F838B90622FF216846FBF712FB00F03E
:1054600038F808B1022032E0062239466846FBF7D8
:10547000D6FA0BE00621684604F03BFB06E0032C5D
:1054800004D16868694604F02DFA0646884FAC7767
:105490000421387801F036FC002028849EB9ACB194
:1054A000684600F05BF8064668B9032C0ED11D2053
:1054B000FFF76BFF288448B138784EF6602204214C
:1054C00001F006FC02E00EB185F81E803046BDE812
:1054D000F681062269463846FBF7C5BA70B5044620
:1054E00000252000714E05D121B1062206F11000E1
:1054F000FBF795FA307801280CD10125200004D162
:1055000002203070FDF712FD04E0002030702046CC
:1055100000F0A8F8284670BD38B50024E0B1057841
:10552000624A290006D14178837801EB0321D182B8
:10553000C0781076107802280ED10124280006D1F8
:1055400003201070117ED08AFBF729FE01E00020B5
:105550001070284600F086F8204632BD10B5534C36
:10556000A17F81B10146062204F12400FBF757FA1E
:10557000A07F04F1240100F008F804F12400BDE844
:105580001040FFF7EDBE002010BD79B102000DD034
:105590004A79012808BF42F0C00006D002F03F025D
:1055A00003284A7102D142F040004871704701005F
:1055B00018BF01210846704770B53C4D0446287F4E
:1055C000FF2815D00A20FBF779FA060010D0D0206A
:1055D000307074700820B0700622A87FF07005F15A
:1055E0002401301DFBF71BFA287F3146FBF787FAB1
:1055F000E87F01280FD12F48006818B180680100AA
:1056000018BF8047BDE87040294800784EF66022F8
:10561000042101F05DBB70BD2448806870472348B9
:10562000C068006870472148C1680A68521C0A6057
:10563000007FFF281CBF4FF48041FBF736BB70474B
:105640001A48807F704738B50446184D05F11000A0
:10565000FFF78AFE05F110001CB9A97F09B105F119
:10566000240032BD70B5114D0446287FFF2819D0A3
:105670000E20FBF723FA060014D0D020307074708F
:105680000020B070062205F11001F01CFBF7C7F9ED
:10569000E88A70813146287E3073287FBDE87040EB
:1056A000FBF72DBA70BD00008C450020604500203E
:1056B000F8450020FC450020DFF800F0259500109B
:1056C0002DE9F04104468846122740464FF6FE7108
:1056D00088421646DFF84C5908D1A86950B30268D1
:1056E000100027D041462046904720E04FF6FF713A
:1056F000884212D1A86938B10268100004D041462E
:1057000020469047070005D03146204600F0BDFAFC
:1057100007000FD12C706E700CE001F026F948B133
:105720000078A04205D131464046FFF7C5FF074645
:1057300000E003273846BDE8F08110B5044684B088
:1057400000F072F808B9022029E02088012101F058
:105750003AF908B9142022E0208801F045F904281C
:1057600012D1DFF8C00881894FF6FF72914218BF4D
:10577000112014D12188818161888180A188C18014
:10578000E1880181218941810020029001902089D6
:105790000090E388A28861882088FDF71DFC04B092
:1057A00010BD30B5044685B02088402101F00BF9CA
:1057B000002836D02088ADF8040000F035F8002528
:1057C00000281CBFA07A002807D10021684600F0FD
:1057D000B1F9A07AF0B102251CE091208DF800000B
:1057E0008DF803503E208DF80100012106208DF830
:1057F0000200A088ADF808006088ADF80600E088D7
:10580000ADF80A002089ADF80C008DF80350684609
:1058100000F090F920880022402101F072F828461B
:1058200000E0122005B030BD2389E288A18860889D
:10583000FDF7FCBA70B50C46DFF8EC1709780229C1
:1058400018BF0129154601D1122070BD0DB90220E3
:1058500070BD01F08AF8060001D1142070BD1CB1A2
:10586000307940F0020030711022294606F118000C
:10587000FBF7D5F82869B062002070BDF8B50600C6
:105880000C4601D10220F2BD308801F06EF805000F
:1058900001D11420F2BDDFF890070078022818BF6C
:1058A000012803D0A87C082802D10CB11220F2BD37
:1058B000DFF87077786908B11120F2BDB02001F0EF
:1058C00031F9786108B91320F2BDB02200F0A5FAD1
:1058D000786931884180A022311D001DFBF79FF8B7
:1058E000796902200870A87C7969328808280CBF81
:1058F000012000200B1DDFF83417097804F006FBA7
:1059000006461CB12146284604F0D5FC300018BFDD
:1059100000F038FA3046F2BD38B504460D4601F0C5
:1059200024F808B9142032BD8DF80050694620468D
:1059300004F0F4FB32BD38B50022A0B101230624E7
